{
  "address": "0xC47CFeA47C53D149f8B4E7d73980dbA12D18fdDC",
  "abi": [
    {
      "inputs": [],
      "stateMutability": "nonpayable",
      "type": "constructor"
    },
    {
      "anonymous": false,
      "inputs": [
        {
          "indexed": true,
          "internalType": "address",
          "name": "player",
          "type": "address"
        },
        {
          "indexed": false,
          "internalType": "uint256",
          "name": "depAmount",
          "type": "uint256"
        },
        {
          "indexed": false,
          "internalType": "uint256",
          "name": "chocie",
          "type": "uint256"
        },
        {
          "indexed": false,
          "internalType": "uint256",
          "name": "result",
          "type": "uint256"
        },
        {
          "indexed": false,
          "internalType": "uint256",
          "name": "prize",
          "type": "uint256"
        },
        {
          "indexed": true,
          "internalType": "enum CoinFlip.Status",
          "name": "status",
          "type": "uint8"
        }
      ],
      "name": "GameFineshed",
      "type": "event"
    },
    {
      "anonymous": false,
      "inputs": [
        {
          "indexed": true,
          "internalType": "address",
          "name": "previousOwner",
          "type": "address"
        },
        {
          "indexed": true,
          "internalType": "address",
          "name": "newOwner",
          "type": "address"
        }
      ],
      "name": "OwnershipTransferred",
      "type": "event"
    },
    {
      "inputs": [
        {
          "internalType": "uint256",
          "name": "_coeff",
          "type": "uint256"
        }
      ],
      "name": "changeCoeff",
      "outputs": [],
      "stateMutability": "nonpayable",
      "type": "function"
    },
    {
      "inputs": [
        {
          "internalType": "uint256",
          "name": "_minDepositAmount",
          "type": "uint256"
        },
        {
          "internalType": "uint256",
          "name": "_maxDepositAmount",
          "type": "uint256"
        }
      ],
      "name": "changeMaxMinBet",
      "outputs": [],
      "stateMutability": "nonpayable",
      "type": "function"
    },
    {
      "inputs": [],
      "name": "coeff",
      "outputs": [
        {
          "internalType": "uint256",
          "name": "",
          "type": "uint256"
        }
      ],
      "stateMutability": "view",
      "type": "function"
    },
    {
      "inputs": [
        {
          "internalType": "uint256",
          "name": "",
          "type": "uint256"
        }
      ],
      "name": "games",
      "outputs": [
        {
          "internalType": "address",
          "name": "player",
          "type": "address"
        },
        {
          "internalType": "uint256",
          "name": "depositAmount",
          "type": "uint256"
        },
        {
          "internalType": "uint256",
          "name": "choice",
          "type": "uint256"
        },
        {
          "internalType": "uint256",
          "name": "result",
          "type": "uint256"
        },
        {
          "internalType": "uint256",
          "name": "prize",
          "type": "uint256"
        },
        {
          "internalType": "enum CoinFlip.Status",
          "name": "status",
          "type": "uint8"
        }
      ],
      "stateMutability": "view",
      "type": "function"
    },
    {
      "inputs": [],
      "name": "maxDepositAmount",
      "outputs": [
        {
          "internalType": "uint256",
          "name": "",
          "type": "uint256"
        }
      ],
      "stateMutability": "view",
      "type": "function"
    },
    {
      "inputs": [],
      "name": "minDepositAmount",
      "outputs": [
        {
          "internalType": "uint256",
          "name": "",
          "type": "uint256"
        }
      ],
      "stateMutability": "view",
      "type": "function"
    },
    {
      "inputs": [],
      "name": "owner",
      "outputs": [
        {
          "internalType": "address",
          "name": "",
          "type": "address"
        }
      ],
      "stateMutability": "view",
      "type": "function"
    },
    {
      "inputs": [
        {
          "internalType": "uint256",
          "name": "depAmount",
          "type": "uint256"
        },
        {
          "internalType": "uint256",
          "name": "choice",
          "type": "uint256"
        }
      ],
      "name": "play",
      "outputs": [],
      "stateMutability": "nonpayable",
      "type": "function"
    },
    {
      "inputs": [],
      "name": "profit",
      "outputs": [
        {
          "internalType": "uint256",
          "name": "",
          "type": "uint256"
        }
      ],
      "stateMutability": "view",
      "type": "function"
    },
    {
      "inputs": [],
      "name": "renounceOwnership",
      "outputs": [],
      "stateMutability": "nonpayable",
      "type": "function"
    },
    {
      "inputs": [],
      "name": "token",
      "outputs": [
        {
          "internalType": "contract GameToken",
          "name": "",
          "type": "address"
        }
      ],
      "stateMutability": "view",
      "type": "function"
    },
    {
      "inputs": [],
      "name": "totalGamesCount",
      "outputs": [
        {
          "internalType": "uint256",
          "name": "",
          "type": "uint256"
        }
      ],
      "stateMutability": "view",
      "type": "function"
    },
    {
      "inputs": [
        {
          "internalType": "address",
          "name": "newOwner",
          "type": "address"
        }
      ],
      "name": "transferOwnership",
      "outputs": [],
      "stateMutability": "nonpayable",
      "type": "function"
    },
    {
      "inputs": [
        {
          "internalType": "uint256",
          "name": "amount",
          "type": "uint256"
        }
      ],
      "name": "withdraw",
      "outputs": [],
      "stateMutability": "nonpayable",
      "type": "function"
    }
  ],
  "transactionHash": "0x097695dcc8e6adb5a380c609f499c2eb840b6e828f9efff05aa413bd37564a08",
  "args": [],
  "numDeployments": 1,
  "solcInputHash": "75e5ff44fb1103e9b17f51c27ff82110",
  "bytecode": "0x60806040523480156200001157600080fd5b506200003262000026620000c360201b60201c565b620000cb60201b60201c565b60c36005819055506064600281905550670de0b6b3a76400006003819055506040516200005f906200018f565b604051809103906000f0801580156200007c573d6000803e3d6000fd5b50600660006101000a81548173ffffffffffffffffffffffffffffffffffffffff021916908373ffffffffffffffffffffffffffffffffffffffff1602179055506200019d565b600033905090565b60008060009054906101000a900473ffffffffffffffffffffffffffffffffffffffff169050816000806101000a81548173ffffffffffffffffffffffffffffffffffffffff021916908373ffffffffffffffffffffffffffffffffffffffff1602179055508173ffffffffffffffffffffffffffffffffffffffff168173ffffffffffffffffffffffffffffffffffffffff167f8be0079c531659141344cd1fd0a4f28419497f9722a3daafe3b4186f6b6457e060405160405180910390a35050565b6119ba80620019d683390190565b61182980620001ad6000396000f3fe608060405234801561001057600080fd5b50600436106100ea5760003560e01c80638da5cb5b1161008c578063eef2bb8e11610066578063eef2bb8e14610218578063f2fde38b14610234578063f593a38714610250578063fc0c546a1461026e576100ea565b80638da5cb5b146101c05780638ed83271146101de578063dd3c308f146101fc576100ea565b806366d16cc3116100c857806366d16cc31461015e578063715018a61461017c5780637bc49a951461018657806387b261ad146101a2576100ea565b8063117a5b90146100ef5780632e1a7d4d14610124578063645006ca14610140575b600080fd5b61010960048036038101906101049190610e6d565b61028c565b60405161011b96959493929190610f61565b60405180910390f35b61013e60048036038101906101399190610e6d565b6102f5565b005b610148610300565b6040516101559190610fc2565b60405180910390f35b610166610306565b6040516101739190610fc2565b60405180910390f35b61018461030c565b005b6101a0600480360381019061019b9190610fdd565b610320565b005b6101aa610b52565b6040516101b79190610fc2565b60405180910390f35b6101c8610b58565b6040516101d5919061101d565b60405180910390f35b6101e6610b81565b6040516101f39190610fc2565b60405180910390f35b61021660048036038101906102119190610e6d565b610b87565b005b610232600480360381019061022d9190610fdd565b610bdc565b005b61024e60048036038101906102499190611064565b610c38565b005b610258610cbc565b6040516102659190610fc2565b60405180910390f35b610276610cc2565b60405161028391906110f0565b60405180910390f35b60076020528060005260406000206000915090508060000160009054906101000a900473ffffffffffffffffffffffffffffffffffffffff16908060010154908060020154908060030154908060040154908060050160009054906101000a900460ff16905086565b6102fd610ce8565b50565b60025481565b60045481565b610314610ce8565b61031e6000610d66565b565b600081148061032f5750600181145b61036e576040517f08c379a000000000000000000000000000000000000000000000000000000000815260040161036590611168565b60405180910390fd5b600254821015801561038257506003548211155b6103c1576040517f08c379a00000000000000000000000000000000000000000000000000000000081526004016103b8906111d4565b60405180910390fd5b81600660009054906101000a900473ffffffffffffffffffffffffffffffffffffffff1673ffffffffffffffffffffffffffffffffffffffff166370a08231336040518263ffffffff1660e01b815260040161041d919061101d565b60206040518083038186803b15801561043557600080fd5b505afa158015610449573d6000803e3d6000fd5b505050506040513d601f19601f8201168201806040525081019061046d9190611209565b10156104ae576040517f08c379a00000000000000000000000000000000000000000000000000000000081526004016104a590611282565b60405180910390fd5b81600660009054906101000a900473ffffffffffffffffffffffffffffffffffffffff1673ffffffffffffffffffffffffffffffffffffffff1663dd62ed3e33306040518363ffffffff1660e01b815260040161050c9291906112a2565b60206040518083038186803b15801561052457600080fd5b505afa158015610538573d6000803e3d6000fd5b505050506040513d601f19601f8201168201806040525081019061055c9190611209565b101561059d576040517f08c379a000000000000000000000000000000000000000000000000000000000815260040161059490611317565b60405180910390fd5b600660009054906101000a900473ffffffffffffffffffffffffffffffffffffffff1673ffffffffffffffffffffffffffffffffffffffff166323b872dd3330856040518463ffffffff1660e01b81526004016105fc93929190611337565b602060405180830381600087803b15801561061657600080fd5b505af115801561062a573d6000803e3d6000fd5b505050506040513d601f19601f8201168201806040525081019061064e91906113a6565b5060646005548361065f9190611402565b610669919061148b565b600660009054906101000a900473ffffffffffffffffffffffffffffffffffffffff1673ffffffffffffffffffffffffffffffffffffffff166370a08231306040518263ffffffff1660e01b81526004016106c4919061101d565b60206040518083038186803b1580156106dc57600080fd5b505afa1580156106f0573d6000803e3d6000fd5b505050506040513d601f19601f820116820180604052508101906107149190611209565b11610754576040517f08c379a000000000000000000000000000000000000000000000000000000000815260040161074b90611508565b60405180910390fd5b60006040518060c001604052803373ffffffffffffffffffffffffffffffffffffffff1681526020018481526020018381526020016000815260200160008152602001600060028111156107ab576107aa610eea565b5b815250905060006002436107bf9190611528565b905082811415610998578082606001818152505060018260a0019060028111156107ec576107eb610eea565b5b90816002811115610800576107ff610eea565b5b815250506064600554856108149190611402565b61081e919061148b565b826080018181525050600660009054906101000a900473ffffffffffffffffffffffffffffffffffffffff1673ffffffffffffffffffffffffffffffffffffffff1663a9059cbb3384608001516040518363ffffffff1660e01b8152600401610888929190611559565b602060405180830381600087803b1580156108a257600080fd5b505af11580156108b6573d6000803e3d6000fd5b505050506040513d601f19601f820116820180604052508101906108da91906113a6565b508160076000600154815260200190815260200160002060008201518160000160006101000a81548173ffffffffffffffffffffffffffffffffffffffff021916908373ffffffffffffffffffffffffffffffffffffffff1602179055506020820151816001015560408201518160020155606082015181600301556080820151816004015560a08201518160050160006101000a81548160ff0219169083600281111561098b5761098a610eea565b5b0217905550905050610ab4565b8082606001818152505060028260a0019060028111156109bb576109ba610eea565b5b908160028111156109cf576109ce610eea565b5b8152505060008260800181815250508160200151600460008282546109f49190611582565b925050819055508160076000600154815260200190815260200160002060008201518160000160006101000a81548173ffffffffffffffffffffffffffffffffffffffff021916908373ffffffffffffffffffffffffffffffffffffffff1602179055506020820151816001015560408201518160020155606082015181600301556080820151816004015560a08201518160050160006101000a81548160ff02191690836002811115610aab57610aaa610eea565b5b02179055509050505b6001806000828254610ac69190611582565b925050819055508160a001516002811115610ae457610ae3610eea565b5b826000015173ffffffffffffffffffffffffffffffffffffffff167f526307d1bf8e1addf833987c5b57bb28ae867da4be161986163d01ed8fa27be08460200151856040015186606001518760800151604051610b4494939291906115d8565b60405180910390a350505050565b60055481565b60008060009054906101000a900473ffffffffffffffffffffffffffffffffffffffff16905090565b60035481565b610b8f610ce8565b60648111610bd2576040517f08c379a0000000000000000000000000000000000000000000000000000000008152600401610bc990611669565b60405180910390fd5b8060058190555050565b610be4610ce8565b808210610c26576040517f08c379a0000000000000000000000000000000000000000000000000000000008152600401610c1d906116d5565b60405180910390fd5b80600381905550816002819055505050565b610c40610ce8565b600073ffffffffffffffffffffffffffffffffffffffff168173ffffffffffffffffffffffffffffffffffffffff161415610cb0576040517f08c379a0000000000000000000000000000000000000000000000000000000008152600401610ca790611767565b60405180910390fd5b610cb981610d66565b50565b60015481565b600660009054906101000a900473ffffffffffffffffffffffffffffffffffffffff1681565b610cf0610e2a565b73ffffffffffffffffffffffffffffffffffffffff16610d0e610b58565b73ffffffffffffffffffffffffffffffffffffffff1614610d64576040517f08c379a0000000000000000000000000000000000000000000000000000000008152600401610d5b906117d3565b60405180910390fd5b565b60008060009054906101000a900473ffffffffffffffffffffffffffffffffffffffff169050816000806101000a81548173ffffffffffffffffffffffffffffffffffffffff021916908373ffffffffffffffffffffffffffffffffffffffff1602179055508173ffffffffffffffffffffffffffffffffffffffff168173ffffffffffffffffffffffffffffffffffffffff167f8be0079c531659141344cd1fd0a4f28419497f9722a3daafe3b4186f6b6457e060405160405180910390a35050565b600033905090565b600080fd5b6000819050919050565b610e4a81610e37565b8114610e5557600080fd5b50565b600081359050610e6781610e41565b92915050565b600060208284031215610e8357610e82610e32565b5b6000610e9184828501610e58565b91505092915050565b600073ffffffffffffffffffffffffffffffffffffffff82169050919050565b6000610ec582610e9a565b9050919050565b610ed581610eba565b82525050565b610ee481610e37565b82525050565b7f4e487b7100000000000000000000000000000000000000000000000000000000600052602160045260246000fd5b60038110610f2a57610f29610eea565b5b50565b6000819050610f3b82610f19565b919050565b6000610f4b82610f2d565b9050919050565b610f5b81610f40565b82525050565b600060c082019050610f766000830189610ecc565b610f836020830188610edb565b610f906040830187610edb565b610f9d6060830186610edb565b610faa6080830185610edb565b610fb760a0830184610f52565b979650505050505050565b6000602082019050610fd76000830184610edb565b92915050565b60008060408385031215610ff457610ff3610e32565b5b600061100285828601610e58565b925050602061101385828601610e58565b9150509250929050565b60006020820190506110326000830184610ecc565b92915050565b61104181610eba565b811461104c57600080fd5b50565b60008135905061105e81611038565b92915050565b60006020828403121561107a57611079610e32565b5b60006110888482850161104f565b91505092915050565b6000819050919050565b60006110b66110b16110ac84610e9a565b611091565b610e9a565b9050919050565b60006110c88261109b565b9050919050565b60006110da826110bd565b9050919050565b6110ea816110cf565b82525050565b600060208201905061110560008301846110e1565b92915050565b600082825260208201905092915050565b7f436f696e466c69703a2077726f6e6720636f6963686500000000000000000000600082015250565b600061115260168361110b565b915061115d8261111c565b602082019050919050565b6000602082019050818103600083015261118181611145565b9050919050565b7f436f696e466c69703a2057726f6e67206465706f73697420616d6f756e740000600082015250565b60006111be601e8361110b565b91506111c982611188565b602082019050919050565b600060208201905081810360008301526111ed816111b1565b9050919050565b60008151905061120381610e41565b92915050565b60006020828403121561121f5761121e610e32565b5b600061122d848285016111f4565b91505092915050565b7f4e6f7420656e6f7567682066756e647300000000000000000000000000000000600082015250565b600061126c60108361110b565b915061127782611236565b602082019050919050565b6000602082019050818103600083015261129b8161125f565b9050919050565b60006040820190506112b76000830185610ecc565b6112c46020830184610ecc565b9392505050565b7f4e6f7420656e6f75676820616c6c6f77616e6365000000000000000000000000600082015250565b600061130160148361110b565b915061130c826112cb565b602082019050919050565b60006020820190508181036000830152611330816112f4565b9050919050565b600060608201905061134c6000830186610ecc565b6113596020830185610ecc565b6113666040830184610edb565b949350505050565b60008115159050919050565b6113838161136e565b811461138e57600080fd5b50565b6000815190506113a08161137a565b92915050565b6000602082840312156113bc576113bb610e32565b5b60006113ca84828501611391565b91505092915050565b7f4e487b7100000000000000000000000000000000000000000000000000000000600052601160045260246000fd5b600061140d82610e37565b915061141883610e37565b9250817fffffffffffffffffffffffffffffffffffffffffffffffffffffffffffffffff0483118215151615611451576114506113d3565b5b828202905092915050565b7f4e487b7100000000000000000000000000000000000000000000000000000000600052601260045260246000fd5b600061149682610e37565b91506114a183610e37565b9250826114b1576114b061145c565b5b828204905092915050565b7f436f6e7472616374206e6f7420656e6f7567682062616c616e63650000000000600082015250565b60006114f2601b8361110b565b91506114fd826114bc565b602082019050919050565b60006020820190508181036000830152611521816114e5565b9050919050565b600061153382610e37565b915061153e83610e37565b92508261154e5761154d61145c565b5b828206905092915050565b600060408201905061156e6000830185610ecc565b61157b6020830184610edb565b9392505050565b600061158d82610e37565b915061159883610e37565b9250827fffffffffffffffffffffffffffffffffffffffffffffffffffffffffffffffff038211156115cd576115cc6113d3565b5b828201905092915050565b60006080820190506115ed6000830187610edb565b6115fa6020830186610edb565b6116076040830185610edb565b6116146060830184610edb565b95945050505050565b7f436f696e466c69703a2077726f6e6720636f6566660000000000000000000000600082015250565b600061165360158361110b565b915061165e8261161d565b602082019050919050565b6000602082019050818103600083015261168281611646565b9050919050565b7f436f696e466c69703a2057726f6e672064657020616d6f756e74210000000000600082015250565b60006116bf601b8361110b565b91506116ca82611689565b602082019050919050565b600060208201905081810360008301526116ee816116b2565b9050919050565b7f4f776e61626c653a206e6577206f776e657220697320746865207a65726f206160008201527f6464726573730000000000000000000000000000000000000000000000000000602082015250565b600061175160268361110b565b915061175c826116f5565b604082019050919050565b6000602082019050818103600083015261178081611744565b9050919050565b7f4f776e61626c653a2063616c6c6572206973206e6f7420746865206f776e6572600082015250565b60006117bd60208361110b565b91506117c882611787565b602082019050919050565b600060208201905081810360008301526117ec816117b0565b905091905056fea2646970667358221220bb2be4a064b6b2a43ea4f75123c089d72fb04ccb21ea1de1f8be05dcb196220164736f6c6343000809003360806040523480156200001157600080fd5b506040518060400160405280600981526020017f47616d65546f6b656e00000000000000000000000000000000000000000000008152506040518060400160405280600281526020017f474d000000000000000000000000000000000000000000000000000000000000815250816003908051906020019062000096929190620000b8565b508060049080519060200190620000af929190620000b8565b505050620001cd565b828054620000c69062000197565b90600052602060002090601f016020900481019282620000ea576000855562000136565b82601f106200010557805160ff191683800117855562000136565b8280016001018555821562000136579182015b828111156200013557825182559160200191906001019062000118565b5b50905062000145919062000149565b5090565b5b80821115620001645760008160009055506001016200014a565b5090565b7f4e487b7100000000000000000000000000000000000000000000000000000000600052602260045260246000fd5b60006002820490506001821680620001b057607f821691505b60208210811415620001c757620001c662000168565b5b50919050565b6117dd80620001dd6000396000f3fe608060405234801561001057600080fd5b50600436106100cf5760003560e01c806340c10f191161008c5780639dc29fac116100665780639dc29fac14610228578063a457c2d714610244578063a9059cbb14610274578063dd62ed3e146102a4576100cf565b806340c10f19146101be57806370a08231146101da57806395d89b411461020a576100cf565b806306fdde03146100d4578063095ea7b3146100f257806318160ddd1461012257806323b872dd14610140578063313ce56714610170578063395093511461018e575b600080fd5b6100dc6102d4565b6040516100e99190610ed3565b60405180910390f35b61010c60048036038101906101079190610f8e565b610366565b6040516101199190610fe9565b60405180910390f35b61012a610389565b6040516101379190611013565b60405180910390f35b61015a6004803603810190610155919061102e565b610393565b6040516101679190610fe9565b60405180910390f35b6101786103c2565b604051610185919061109d565b60405180910390f35b6101a860048036038101906101a39190610f8e565b6103cb565b6040516101b59190610fe9565b60405180910390f35b6101d860048036038101906101d39190610f8e565b610402565b005b6101f460048036038101906101ef91906110b8565b610410565b6040516102019190611013565b60405180910390f35b610212610458565b60405161021f9190610ed3565b60405180910390f35b610242600480360381019061023d9190610f8e565b6104ea565b005b61025e60048036038101906102599190610f8e565b6104f8565b60405161026b9190610fe9565b60405180910390f35b61028e60048036038101906102899190610f8e565b61056f565b60405161029b9190610fe9565b60405180910390f35b6102be60048036038101906102b991906110e5565b610592565b6040516102cb9190611013565b60405180910390f35b6060600380546102e390611154565b80601f016020809104026020016040519081016040528092919081815260200182805461030f90611154565b801561035c5780601f106103315761010080835404028352916020019161035c565b820191906000526020600020905b81548152906001019060200180831161033f57829003601f168201915b5050505050905090565b600080610371610619565b905061037e818585610621565b600191505092915050565b6000600254905090565b60008061039e610619565b90506103ab8582856107ec565b6103b6858585610878565b60019150509392505050565b60006012905090565b6000806103d6610619565b90506103f78185856103e88589610592565b6103f291906111b5565b610621565b600191505092915050565b61040c8282610af9565b5050565b60008060008373ffffffffffffffffffffffffffffffffffffffff1673ffffffffffffffffffffffffffffffffffffffff168152602001908152602001600020549050919050565b60606004805461046790611154565b80601f016020809104026020016040519081016040528092919081815260200182805461049390611154565b80156104e05780601f106104b5576101008083540402835291602001916104e0565b820191906000526020600020905b8154815290600101906020018083116104c357829003601f168201915b5050505050905090565b6104f48282610c59565b5050565b600080610503610619565b905060006105118286610592565b905083811015610556576040517f08c379a000000000000000000000000000000000000000000000000000000000815260040161054d9061127d565b60405180910390fd5b6105638286868403610621565b60019250505092915050565b60008061057a610619565b9050610587818585610878565b600191505092915050565b6000600160008473ffffffffffffffffffffffffffffffffffffffff1673ffffffffffffffffffffffffffffffffffffffff16815260200190815260200160002060008373ffffffffffffffffffffffffffffffffffffffff1673ffffffffffffffffffffffffffffffffffffffff16815260200190815260200160002054905092915050565b600033905090565b600073ffffffffffffffffffffffffffffffffffffffff168373ffffffffffffffffffffffffffffffffffffffff161415610691576040517f08c379a00000000000000000000000000000000000000000000000000000000081526004016106889061130f565b60405180910390fd5b600073ffffffffffffffffffffffffffffffffffffffff168273ffffffffffffffffffffffffffffffffffffffff161415610701576040517f08c379a00000000000000000000000000000000000000000000000000000000081526004016106f8906113a1565b60405180910390fd5b80600160008573ffffffffffffffffffffffffffffffffffffffff1673ffffffffffffffffffffffffffffffffffffffff16815260200190815260200160002060008473ffffffffffffffffffffffffffffffffffffffff1673ffffffffffffffffffffffffffffffffffffffff168152602001908152602001600020819055508173ffffffffffffffffffffffffffffffffffffffff168373ffffffffffffffffffffffffffffffffffffffff167f8c5be1e5ebec7d5bd14f71427d1e84f3dd0314c0f7b2291e5b200ac8c7c3b925836040516107df9190611013565b60405180910390a3505050565b60006107f88484610592565b90507fffffffffffffffffffffffffffffffffffffffffffffffffffffffffffffffff81146108725781811015610864576040517f08c379a000000000000000000000000000000000000000000000000000000000815260040161085b9061140d565b60405180910390fd5b6108718484848403610621565b5b50505050565b600073ffffffffffffffffffffffffffffffffffffffff168373ffffffffffffffffffffffffffffffffffffffff1614156108e8576040517f08c379a00000000000000000000000000000000000000000000000000000000081526004016108df9061149f565b60405180910390fd5b600073ffffffffffffffffffffffffffffffffffffffff168273ffffffffffffffffffffffffffffffffffffffff161415610958576040517f08c379a000000000000000000000000000000000000000000000000000000000815260040161094f90611531565b60405180910390fd5b610963838383610e30565b60008060008573ffffffffffffffffffffffffffffffffffffffff1673ffffffffffffffffffffffffffffffffffffffff168152602001908152602001600020549050818110156109e9576040517f08c379a00000000000000000000000000000000000000000000000000000000081526004016109e0906115c3565b60405180910390fd5b8181036000808673ffffffffffffffffffffffffffffffffffffffff1673ffffffffffffffffffffffffffffffffffffffff16815260200190815260200160002081905550816000808573ffffffffffffffffffffffffffffffffffffffff1673ffffffffffffffffffffffffffffffffffffffff1681526020019081526020016000206000828254610a7c91906111b5565b925050819055508273ffffffffffffffffffffffffffffffffffffffff168473ffffffffffffffffffffffffffffffffffffffff167fddf252ad1be2c89b69c2b068fc378daa952ba7f163c4a11628f55a4df523b3ef84604051610ae09190611013565b60405180910390a3610af3848484610e35565b50505050565b600073ffffffffffffffffffffffffffffffffffffffff168273ffffffffffffffffffffffffffffffffffffffff161415610b69576040517f08c379a0000000000000000000000000000000000000000000000000000000008152600401610b609061162f565b60405180910390fd5b610b7560008383610e30565b8060026000828254610b8791906111b5565b92505081905550806000808473ffffffffffffffffffffffffffffffffffffffff1673ffffffffffffffffffffffffffffffffffffffff1681526020019081526020016000206000828254610bdc91906111b5565b925050819055508173ffffffffffffffffffffffffffffffffffffffff16600073ffffffffffffffffffffffffffffffffffffffff167fddf252ad1be2c89b69c2b068fc378daa952ba7f163c4a11628f55a4df523b3ef83604051610c419190611013565b60405180910390a3610c5560008383610e35565b5050565b600073ffffffffffffffffffffffffffffffffffffffff168273ffffffffffffffffffffffffffffffffffffffff161415610cc9576040517f08c379a0000000000000000000000000000000000000000000000000000000008152600401610cc0906116c1565b60405180910390fd5b610cd582600083610e30565b60008060008473ffffffffffffffffffffffffffffffffffffffff1673ffffffffffffffffffffffffffffffffffffffff16815260200190815260200160002054905081811015610d5b576040517f08c379a0000000000000000000000000000000000000000000000000000000008152600401610d5290611753565b60405180910390fd5b8181036000808573ffffffffffffffffffffffffffffffffffffffff1673ffffffffffffffffffffffffffffffffffffffff168152602001908152602001600020819055508160026000828254610db29190611773565b92505081905550600073ffffffffffffffffffffffffffffffffffffffff168373ffffffffffffffffffffffffffffffffffffffff167fddf252ad1be2c89b69c2b068fc378daa952ba7f163c4a11628f55a4df523b3ef84604051610e179190611013565b60405180910390a3610e2b83600084610e35565b505050565b505050565b505050565b600081519050919050565b600082825260208201905092915050565b60005b83811015610e74578082015181840152602081019050610e59565b83811115610e83576000848401525b50505050565b6000601f19601f8301169050919050565b6000610ea582610e3a565b610eaf8185610e45565b9350610ebf818560208601610e56565b610ec881610e89565b840191505092915050565b60006020820190508181036000830152610eed8184610e9a565b905092915050565b600080fd5b600073ffffffffffffffffffffffffffffffffffffffff82169050919050565b6000610f2582610efa565b9050919050565b610f3581610f1a565b8114610f4057600080fd5b50565b600081359050610f5281610f2c565b92915050565b6000819050919050565b610f6b81610f58565b8114610f7657600080fd5b50565b600081359050610f8881610f62565b92915050565b60008060408385031215610fa557610fa4610ef5565b5b6000610fb385828601610f43565b9250506020610fc485828601610f79565b9150509250929050565b60008115159050919050565b610fe381610fce565b82525050565b6000602082019050610ffe6000830184610fda565b92915050565b61100d81610f58565b82525050565b60006020820190506110286000830184611004565b92915050565b60008060006060848603121561104757611046610ef5565b5b600061105586828701610f43565b935050602061106686828701610f43565b925050604061107786828701610f79565b9150509250925092565b600060ff82169050919050565b61109781611081565b82525050565b60006020820190506110b2600083018461108e565b92915050565b6000602082840312156110ce576110cd610ef5565b5b60006110dc84828501610f43565b91505092915050565b600080604083850312156110fc576110fb610ef5565b5b600061110a85828601610f43565b925050602061111b85828601610f43565b9150509250929050565b7f4e487b7100000000000000000000000000000000000000000000000000000000600052602260045260246000fd5b6000600282049050600182168061116c57607f821691505b602082108114156111805761117f611125565b5b50919050565b7f4e487b7100000000000000000000000000000000000000000000000000000000600052601160045260246000fd5b60006111c082610f58565b91506111cb83610f58565b9250827fffffffffffffffffffffffffffffffffffffffffffffffffffffffffffffffff03821115611200576111ff611186565b5b828201905092915050565b7f45524332303a2064656372656173656420616c6c6f77616e63652062656c6f7760008201527f207a65726f000000000000000000000000000000000000000000000000000000602082015250565b6000611267602583610e45565b91506112728261120b565b604082019050919050565b600060208201905081810360008301526112968161125a565b9050919050565b7f45524332303a20617070726f76652066726f6d20746865207a65726f2061646460008201527f7265737300000000000000000000000000000000000000000000000000000000602082015250565b60006112f9602483610e45565b91506113048261129d565b604082019050919050565b60006020820190508181036000830152611328816112ec565b9050919050565b7f45524332303a20617070726f766520746f20746865207a65726f20616464726560008201527f7373000000000000000000000000000000000000000000000000000000000000602082015250565b600061138b602283610e45565b91506113968261132f565b604082019050919050565b600060208201905081810360008301526113ba8161137e565b9050919050565b7f45524332303a20696e73756666696369656e7420616c6c6f77616e6365000000600082015250565b60006113f7601d83610e45565b9150611402826113c1565b602082019050919050565b60006020820190508181036000830152611426816113ea565b9050919050565b7f45524332303a207472616e736665722066726f6d20746865207a65726f20616460008201527f6472657373000000000000000000000000000000000000000000000000000000602082015250565b6000611489602583610e45565b91506114948261142d565b604082019050919050565b600060208201905081810360008301526114b88161147c565b9050919050565b7f45524332303a207472616e7366657220746f20746865207a65726f206164647260008201527f6573730000000000000000000000000000000000000000000000000000000000602082015250565b600061151b602383610e45565b9150611526826114bf565b604082019050919050565b6000602082019050818103600083015261154a8161150e565b9050919050565b7f45524332303a207472616e7366657220616d6f756e742065786365656473206260008201527f616c616e63650000000000000000000000000000000000000000000000000000602082015250565b60006115ad602683610e45565b91506115b882611551565b604082019050919050565b600060208201905081810360008301526115dc816115a0565b9050919050565b7f45524332303a206d696e7420746f20746865207a65726f206164647265737300600082015250565b6000611619601f83610e45565b9150611624826115e3565b602082019050919050565b600060208201905081810360008301526116488161160c565b9050919050565b7f45524332303a206275726e2066726f6d20746865207a65726f2061646472657360008201527f7300000000000000000000000000000000000000000000000000000000000000602082015250565b60006116ab602183610e45565b91506116b68261164f565b604082019050919050565b600060208201905081810360008301526116da8161169e565b9050919050565b7f45524332303a206275726e20616d6f756e7420657863656564732062616c616e60008201527f6365000000000000000000000000000000000000000000000000000000000000602082015250565b600061173d602283610e45565b9150611748826116e1565b604082019050919050565b6000602082019050818103600083015261176c81611730565b9050919050565b600061177e82610f58565b915061178983610f58565b92508282101561179c5761179b611186565b5b82820390509291505056fea26469706673582212202df4b1258917f7162c437e622cddb507124e402af172a4e9c88b28413536368a64736f6c63430008090033",
  "devdoc": {
    "kind": "dev",
    "methods": {
      "owner()": {
        "details": "Returns the address of the current owner."
      },
      "renounceOwnership()": {
        "details": "Leaves the contract without owner. It will not be possible to call `onlyOwner` functions anymore. Can only be called by the current owner. NOTE: Renouncing ownership will leave the contract without an owner, thereby removing any functionality that is only available to the owner."
      },
      "transferOwnership(address)": {
        "details": "Transfers ownership of the contract to a new account (`newOwner`). Can only be called by the current owner."
      }
    },
    "version": 1
  },
  "userdoc": {
    "kind": "user",
    "methods": {},
    "version": 1
  },
  "storageLayout": {
    "storage": [
      {
        "astId": 7,
        "contract": "contracts/CoinFlip.sol:CoinFlip",
        "label": "_owner",
        "offset": 0,
        "slot": "0",
        "type": "t_address"
      },
      {
        "astId": 850,
        "contract": "contracts/CoinFlip.sol:CoinFlip",
        "label": "totalGamesCount",
        "offset": 0,
        "slot": "1",
        "type": "t_uint256"
      },
      {
        "astId": 852,
        "contract": "contracts/CoinFlip.sol:CoinFlip",
        "label": "minDepositAmount",
        "offset": 0,
        "slot": "2",
        "type": "t_uint256"
      },
      {
        "astId": 854,
        "contract": "contracts/CoinFlip.sol:CoinFlip",
        "label": "maxDepositAmount",
        "offset": 0,
        "slot": "3",
        "type": "t_uint256"
      },
      {
        "astId": 856,
        "contract": "contracts/CoinFlip.sol:CoinFlip",
        "label": "profit",
        "offset": 0,
        "slot": "4",
        "type": "t_uint256"
      },
      {
        "astId": 858,
        "contract": "contracts/CoinFlip.sol:CoinFlip",
        "label": "coeff",
        "offset": 0,
        "slot": "5",
        "type": "t_uint256"
      },
      {
        "astId": 861,
        "contract": "contracts/CoinFlip.sol:CoinFlip",
        "label": "token",
        "offset": 0,
        "slot": "6",
        "type": "t_contract(GameToken)1190"
      },
      {
        "astId": 866,
        "contract": "contracts/CoinFlip.sol:CoinFlip",
        "label": "games",
        "offset": 0,
        "slot": "7",
        "type": "t_mapping(t_uint256,t_struct(Game)848_storage)"
      }
    ],
    "types": {
      "t_address": {
        "encoding": "inplace",
        "label": "address",
        "numberOfBytes": "20"
      },
      "t_contract(GameToken)1190": {
        "encoding": "inplace",
        "label": "contract GameToken",
        "numberOfBytes": "20"
      },
      "t_enum(Status)834": {
        "encoding": "inplace",
        "label": "enum CoinFlip.Status",
        "numberOfBytes": "1"
      },
      "t_mapping(t_uint256,t_struct(Game)848_storage)": {
        "encoding": "mapping",
        "key": "t_uint256",
        "label": "mapping(uint256 => struct CoinFlip.Game)",
        "numberOfBytes": "32",
        "value": "t_struct(Game)848_storage"
      },
      "t_struct(Game)848_storage": {
        "encoding": "inplace",
        "label": "struct CoinFlip.Game",
        "members": [
          {
            "astId": 836,
            "contract": "contracts/CoinFlip.sol:CoinFlip",
            "label": "player",
            "offset": 0,
            "slot": "0",
            "type": "t_address"
          },
          {
            "astId": 838,
            "contract": "contracts/CoinFlip.sol:CoinFlip",
            "label": "depositAmount",
            "offset": 0,
            "slot": "1",
            "type": "t_uint256"
          },
          {
            "astId": 840,
            "contract": "contracts/CoinFlip.sol:CoinFlip",
            "label": "choice",
            "offset": 0,
            "slot": "2",
            "type": "t_uint256"
          },
          {
            "astId": 842,
            "contract": "contracts/CoinFlip.sol:CoinFlip",
            "label": "result",
            "offset": 0,
            "slot": "3",
            "type": "t_uint256"
          },
          {
            "astId": 844,
            "contract": "contracts/CoinFlip.sol:CoinFlip",
            "label": "prize",
            "offset": 0,
            "slot": "4",
            "type": "t_uint256"
          },
          {
            "astId": 847,
            "contract": "contracts/CoinFlip.sol:CoinFlip",
            "label": "status",
            "offset": 0,
            "slot": "5",
            "type": "t_enum(Status)834"
          }
        ],
        "numberOfBytes": "192"
      },
      "t_uint256": {
        "encoding": "inplace",
        "label": "uint256",
        "numberOfBytes": "32"
      }
    }
  }
}